:020000040800F2
:10000000081000204501000859310008C1290008E6
:10001000A9300008D90B0008693F00080000000063
:10002000000000000000000000000000113900087E
:10003000C50C0008000000002D370008B139000889
:100040005F0100085F0100085F0100085F01000810
:100050005F0100085F0100085F0100085F01000800
:100060005F0100085F0100085F0100085F010008F0
:100070005F0100085F0100085F0100085F010008E0
:100080005F0100085F0100085F0100085F010008D0
:100090005F0100085F0100085F0100085F010008C0
:1000A0005F0100085F0100085F0100085F010008B0
:1000B0005F010008313A00085F0100085F01000895
:1000C0005F0100085F0100085F0100085F01000890
:1000D0005F010008253F00085F0100085F0100087C
:1000E0005F0100085F0100085F0100085F01000870
:1000F0005F0100085F0100085F0100085F01000860
:100100005F0100085F0100085F0100085F0100084F
:100110005F0100085F0100085F0100085F0100083F
:100120005F0100085F0100085F0100085F0100082F
:10013000DFF80CD000F082FC004800476D5F00083B
:10014000081000200648804706480047FEE7FEE703
:10015000FEE7FEE7FEE7FEE7FEE7FEE7FEE7FEE777
:100160002F3A0008310100082DE9F0410024061B58
:10017000254671F1000605DA01240027D0EB0700BF
:1001800067EB0101161E73F1000605DA0027D2EBBA
:100190000702012567EB030300F0B3FA86460E461B
:1001A00017469C46AC4204D00025D0EB050E65EB0B
:1001B000010624B10020D2EB000760EB030C70466F
:1001C00031463A466346BDE8F081202A04DB203AF6
:1001D00021FA02F00021704721FA02F3D040C2F167
:1001E00020029140084319467047D2B201E000F85E
:1001F000012B491EFBD270470022F6E710B51346CB
:100200000A4604461946FFF7F0FF204610BD30B5F8
:1002100004460020034600E05B1C934203D2E05CEE
:10022000CD5C401BF8D030BDF0B480EA0102D40FA1
:100230004200B2EB410F02D20246084611464A0084
:1002400042D0C30DDDB2C1F3C752AD1A202D35DA4D
:10025000C1F3160141F4000204B15242C5F1200677
:1002600002FA06F12A411044B3EBD05F23D0C4B1A7
:10027000012DA0EBC35009DCF0BC4FF0004202EAB4
:10028000C352DBB200F5000000F096BA400000F166
:10029000807000EBC350A0F1807040EAD17049003B
:1002A00009E0490841EAC071A0EBC35000F5000025
:1002B000400800EBC350F0BC00F075BA6142012267
:1002C00002EB4101001BF6E7F0BC704781F00041F2
:1002D000AAE780F00040A7E780EA010210B502F02B
:1002E0000043400022D04A001FD0010E01EB1261F2
:1002F000C0F35600C2F3560240F4000042F400027C
:10030000A0FB022000047F39140400D0401C50EAF6
:10031000124001D44000491EC2B20C0604EBD010BA
:10032000401C4008802A02D003E0002010BD20F0CD
:100330000100002900DA0020184310BD30B480EA23
:10034000010202F0004530F0004221F0004013D0DD
:1003500090B1C30DD40DC2F31601C0F31600E41A18
:1003600041F4000140F400027D34914201D3641C49
:1003700000E04900002C02DA30BC002070474FF446
:1003800000000023914201D3891A034340084FEA39
:100390004101F7D151B1914202D14FF0004105E046
:1003A00002D24FF0010101E06FF0010103EBC450F4
:1003B000284430BC00F0F7B9420005D0C0F3C75262
:1003C0005242914201DC0020704700EBC15070475F
:1003D0002DE9FE4F804681EA0300C00F0C460090D5
:1003E00021F0004123F00045B8EB0200A94105D2FD
:1003F0004046214690461C460B46024623F00040EC
:10040000104347D0270DC7F30A00C3F30A510290E7
:10041000401A019040286BDAC3F3130040F4801BAC
:100420000098924620B10023D2EB030A63EB0B0B3A
:1004300001985946C0F14002504600F093F9064633
:100440000D4650465946019A00F09BF910EB080002
:100450006141002487EA115284EAE7731A4340D0CD
:10046000009A62B3019A012A4FEA075215DC001B79
:1004700061EB02014FF0004202EA0752CDE900426F
:10048000001C41F5801132462B4600F0D2F903B032
:10049000BDE8F08F40462146F9E7001B61EB020101
:1004A000001C41F5801300185B412018A2F50017CD
:1004B00047EB030140EAD570B6196D4111E06D08B4
:1004C0004FEA360645EAC0754FEA0752001B61EB5A
:1004D0000201001C41F5801149084FEA3000001963
:1004E000514132462B4603B0BDE8F04F00F092B9BF
:1004F0000098012240000023D0EB020263EBE0737E
:10050000009821464FEAE074B8EB000061EB04016B
:10051000E9E783F000435BE781F0004158E72DE90C
:10052000FE4F81EA030404F0004421F000410094EE
:100530004FF0000B23F0004350EA01045ED052EA72
:1005400003045BD0C3F30A54C1F30A552C44A4F24C
:10055000F3340194A0FB0254C1F3130141F4801160
:10056000C3F3130343F4801301FB024400FB034E67
:10057000840A970A44EA815447EA8357A4FB076830
:1005800002958D0A05FB07854FEA932C04FB0C545A
:100590002705029D4FEA065847EA1637B5EB0805CE
:1005A0006EEB070C870E920E47EA811742EA831220
:1005B000A7FB0201B6EB0B0164EB00042B0D43EA31
:1005C0000C335E1844EB1C50DA465146E7FB02013F
:1005D000C5F313044FEA0B3343EA14534FEA0432D2
:1005E000019C43EA0603A4F10C040294009CCDE9AB
:1005F00000B400F01EF903B0BDE8F08F0020014602
:10060000F9E7C10F80EAE0700844CA079623002189
:1006100000F0D2B896230022114600F0CDB800F0C9
:10062000004220F00040C10DC0F3160040F400006D
:100630007F2901DA00207047962903DCC1F1960179
:10064000C84001E096398840002AF4D04042704703
:1006500020F00040C10DC0F3160040F400007F29D7
:1006600001DA00207047962903DCC1F19601C840E9
:10067000704796398840704700F0004230F00040E3
:100680000AD0C10D01F56071C0F3160042EA0151B4
:10069000C20840071143704700200146704701F02F
:1006A000004330B421F0004150EA010206D00A0DA7
:1006B000A2F56072C1F31301002A02DC30BC0020F5
:1006C0007047440F44EAC104C100E01830BC00EB9D
:1006D000C25000F068B830B50B4601460020202219
:1006E000012409E021FA02F59D4205D303FA02F53F
:1006F000491B04FA02F52844151EA2F10102F1DC9F
:1007000030BD2DE9F05F0546002092469B468846A5
:100710000646814640241BE028464146474622467D
:10072000FFF753FD53465A46C01A914110D3114664
:100730001846224600F016F82D1A67EB01084F46BE
:1007400022460120002100F00DF817EB00094E4170
:10075000201EA4F10104DFDC484631462A46434608
:10076000BDE8F09F202A04DB203A00FA02F10020C5
:1007700070479140C2F1200320FA03F319439040DF
:100780007047202A06DBCB17203A41FA02F043EAF1
:10079000E07306E041FA02F3D040C2F1200291403A
:1007A0000843194670470029A8BF7047401C4900FC
:1007B00008BF20F00100704710B4B0FA80FC00FAC6
:1007C0000CF050EA010404BF10BC704749B1CCF1F1
:1007D000200421FA04F411FA0CF118BF012121437D
:1007E0000843A3EB0C01CB1D4FEA00614FEA102038
:1007F00042BF002010BC704700EBC35010440029DA
:10080000A4BF10BC7047401C490008BF20F0010085
:1008100010BC704710B5141E73F1000408DA401CB8
:1008200041F1000192185B411A4301D120F001000F
:1008300010BD2DE9F04D92469B4611B1B1FA81F2FF
:1008400002E0B0FA80F220329046FFF78BFF0446B8
:100850000F4640EA0A0041EA0B0153465A46084354
:1008600013D0114653EA010019D0C8F14002504696
:10087000FFF7ABFC05460E46504659464246FFF789
:1008800071FF084305D0012004E020463946BDE849
:10089000F08D0020054346EAE0762C4337430A9862
:1008A0006305E40AA0EB08000022FD0A44EA47546D
:1008B0000A3002D500200146E9E701051019694117
:1008C000DDE9084500196941BDE8F04DA2E72DE9D1
:1008D000F04D81EA030404F0004B21F0004514467A
:1008E0004FF0000A23F0004150EA050220D054EAFC
:1008F00001021DD0C5F30A570246C5F31303C1F325
:100900001300C1F30A5640F4801543F48013A7EB9B
:100910000608101BD64608F2FD3873EB050002D31B
:1009200008F1010801E092185B41B8F1000F03DA09
:1009300000200146BDE8F08D00204FF480110646EE
:1009400084460EE0171B73EB050705D3121B63EB00
:10095000050306434CEA010C49084FEA300092189F
:100960005B4150EA0107EDD152EA030012D082EA5E
:10097000040083EA0501084305D0101BAB4106D2F1
:100980000122002306E000224FF0004302E06FF056
:10099000010253101AEB06004CEB085110EB0A0051
:1009A00041EB0B01BDE8F04DFFF734BF70B521F00E
:1009B000004303430CD0C1F30A550024D5EB0405D2
:1009C00064EB0403D617AD1AB34102DB00200146E5
:1009D00070BD201841EB025170BDC1F30A52C1F342
:1009E000130140F2FF3341F480119A4202DA0020F1
:1009F0000146704740F233439A42A2F2334202DC8E
:100A00005242FFF7E2BBFFF7ADBE000030B5041E57
:100A100071F1000404DB4FF00044404264EB01013B
:100A2000141E73F1000405DB1C464FF000435242D4
:100A300063EB0403994208BF904230BD064C074D5A
:100A400006E0E06840F0010394E80700984710349E
:100A5000AC42F6D3FFF770FBA8850008C8850008F4
:100A60002DE9F04D00231A461B1A8A4103DB0020B2
:100A70000146BDE8F08DC1F30A52C1F3130141F400
:100A800080154FF0000BD10702D100186D41521EA6
:100A90000027044640F2FF11384601EB620A3E4649
:100AA0008046024600204FF48011FFF78EFBC219EA
:100AB0007141BB1846EB0100B4EB030C75EB000C65
:100AC00004D3E41A65EB000517460E46241908F115
:100AD00001006D4180463428E3DDF91946EB06003C
:100AE000091BA84103D24FF0FF32134601E0002258
:100AF00013461BEB070046EB0A51BDE8F04DFFF72C
:100B000089BE000070B5044600688168C943C90702
:100B100017D1816821F00101816000F0E5FC0546F4
:100B20000AE000BF00F0E0FC401B022804D9206866
:100B30008068C043C00706D020688068C043C007F3
:100B4000F0D0002070BDA06A40F01000A062E06A02
:100B500040F00100E062012070BD0000F8B5002601
:100B60000446009600688168C943C9072DD0816892
:100B700041F001018160164816490068B0FBF1F0B0
:100B800000E0401E00900028FBD100F0ADFC0546BF
:100B900016E000BF00F0A8FC401B022810D9206816
:100BA0008068C043C0070BD0A06A40F01000A0626C
:100BB000E06A40F00100E06284F824600120F8BDA2
:100BC00020688068C043C007E4D10020F8BD000061
:100BD000A800002040420F00FEE700002DE9F04190
:100BE0000F460E4980F0004008600D4801680B4830
:100BF00002F0C4FC0B4C0546294620623846FFF73C
:100C000065FB0646606229463846FFF70DFB014644
:100C1000A0623046BDE8F04102F048BA90070020DB
:100C20007C0000200000002038B5002000906B46BA
:100C300001227521682005F013F99DF8000068284D
:100C40000CD0BFF34F8F1C4801681C4A01F4E061CF
:100C500011430160BFF34F8F00BFFDE705F0BAFA03
:100C6000002828D1782005F073FF782005F0E4F9FA
:100C7000C82005F02DFF04F04BFB1148044605F099
:100C800051F90546E01C05F04DF945EAC005A01DE7
:100C900005F048F945EA801080B204F0E9FC40F222
:100CA000731004F00DFAC82004F04AFC05F0D7FFD9
:100CB000012005F033FE38BD0CED00E00400FA051C
:100CC00090000020704772B6FEE70000F8B50024DF
:100CD000009490F824202546012A12D0012280F8A1
:100CE00024204A681F23072A0DD20668776B521EFC
:100CF00002EB820293409F430B6893401F4377634C
:100D000019E00220F8BD06680D2A0AD2376BD21FFF
:100D100002EB820293409F430B6893401F4337636B
:100D200009E0F76A0D3A02EB820293409F430B6899
:100D300093401F43F7620A68072306680A2A0AD30A
:100D4000F7680A3A02EB420293409F438B68934054
:100D50001F43F76008E0376902EB420293409F436C
:100D60008B6893401F4337610A68102A01D0112A0B
:100D700020D1124B02689A4217D193681B0219D4F2
:100D8000936843F4000393600968102912D10C4959
:100D90000C4A0968B1FBF2F101EB8101490000E066
:100DA000491E00910029FBD104E0816A41F0200135
:100DB0008162012480F824502046F8BD00240140BF
:100DC000A800002040420F000068C06C704700007F
:100DD0002DE9F04104004FF0000514D0A06A002670
:100DE00028B9E66284F82460204600F083F82046A3
:100DF000FFF788FEA16A01F01001014304D0A06A48
:100E000040F01000A0626BE0A16A21F4885141F02B
:100E10000201A162334923688B42E16904D1B1F533
:100E2000402F01D14FF40021277B4FF4807C41EA11
:100E3000470261680A43A168614509D0012907D0CA
:100E40005FF0000194F814E0BEF1010F02D00AE057
:100E50006146F7E7C7B1A76A47F02007A762E76ACC
:100E600047F00107E7625F6827F469470F435F6057
:100E7000236899681C4F394011439960A168614506
:100E80000BD0012909D00CE0DFF860E0A7690EEB78
:100E900047370F4347F40061E5E7218A0D05A5F5C3
:100EA00080152168CB6A23F470032B43CB62216841
:100EB00089680F4B1940914208D1E662A16A21F07E
:100EC000020141F00101A162BDE8F081A06A20F0B9
:100ED000020040F01000A062E06A40F00100E06211
:100EE0000120F1E7003C0140FDF7E1FF00E0FFFFDA
:100EF000FE0E1FFF00B585B0002100910191029107
:100F0000039100680E49884218D10E48816941F466
:100F100080618161816901F480610491816941F09E
:100F2000100181618069694600F010000490022080
:100F3000009003200190044800F0D4F905B000BDF2
:100F40000028014000100240001001402DE9F84344
:100F500000270D460446009700F0C6FA8046206838
:100F60008168C90508D5A06A40F02000A06284F815
:100F700024700120BDE8F8834168C90503D4C06A24
:100F800010F4700F2AD0022000F04CFB3B49096896
:100F9000B1FBF0F62068036939490B424FEA610161
:100FA0004FEAA1121FD1C3684FEA611C13EA0C0F6C
:100FB00019D103690B4225D1C068104222D11420F7
:100FC00023E0681C0AD02DB100F08EFAA0EB0800D7
:100FD000A84203D920680068800725D520680068EA
:100FE0008007EED52DE003690B4202D1C1681142A2
:100FF00006D0026923490A4206D1C068084203D1DB
:10100000542002E0292000E0FC204643009816E02E
:10101000681C11D02DB100F067FAA0EB0800A842BF
:101020000AD90098B04207D2A06A40F00400A0623A
:1010300084F8247003209DE70098401C0090B04283
:10104000E6D321686FF012000860A06A40F40070D7
:10105000A06220688068C0F3424007280CD1207B42
:1010600050B9A06A20F48070A062A06AC00403D4C2
:10107000A06A40F00100A06200207BE7A8000020E9
:10108000244992244992240070B5044690F8240023
:1010900001280DD0012084F824002046FFF75EFDD2
:1010A00002004FF0000005D084F82400104670BD07
:1010B000022070BDA16A40F20123994341F480717E
:1010C000A1621F4D23681F49AB4218D10E6816F468
:1010D000702F14D0A66A46F48016A6620E687605B4
:1010E00005D5A66A26F4005646F48056A662A66A7E
:1010F000F6040AD5E66A26F00606E66206E0A66A67
:1011000026F48016A6625E68E9E7E06284F82400AF
:101110006FF00200186020688368C3F34243072B16
:1011200005D1A84208D1096811F4702F04D0816854
:1011300041F480118160B9E7816841F4A001F9E7C9
:10114000002801400424014010B590F8211000222D
:10115000022905D00421816380F82020012010BDE0
:1011600001680B6823F00E030B6001680B6823F025
:1011700001030B6090F84030C46B012101FA03F3C6
:10118000636080F8211080F82020104610BD000018
:101190002DE9F05F90F821100024022903D00421EA
:1011A0008163012485E001680A6822F00E020A606A
:1011B00001680A6822F001020A603F4E3E4FB215F4
:1011C000DFF8F4C0DFF8F090DFF8ECA0DFF8E8B06B
:1011D000DFF8E4E00168783F13011502ACF1640C1C
:1011E000A9F15009AAF13C0AABF1280BAEF1140E9B
:1011F0004FF48018B14227D9B9420ED0614512D0C0
:1012000049451DD0514518D0594518D0714501D1D7
:10121000424615E0294EB14201D1012210E0274E8D
:101220001436B14201D110220AE0244E2836B142D0
:1012300006D0224A3C32914201D11A4600E02A46A9
:101240001E49091F0A602BE0B94213D0614517D02F
:10125000494522D051451DD059451DD0714501D178
:1012600042461AE0B14202D14FF0807215E0134EAF
:10127000B14201D1012210E0104E1436B14201D129
:1012800010220AE00D4E2836B14206D00B4A3C32FD
:10129000914201D11A4600E02A46074980394A6046
:1012A000012180F82110002180F82010416B01B14C
:1012B00088472046BDE8F09F8000024008040240B5
:1012C00070B5044600F010F90546601C02D00448D1
:1012D0000078044400F008F9401BA042FAD370BD26
:1012E0009C0000202DE9F84FDFF8C8910024A9F1F7
:1012F000040B23460F2709F1040AABF1040ED1E0D9
:101300000125A54006EA0502AA4276D1DFF8A8C168
:101310004E68A6EB0C0866452BD00DDC032E34D0AE
:1013200005DC36B3012E19D0022E2FD11BE0112E71
:1013300016D0122E2AD119E0B8F5881F19D006DC74
:10134000B8F5803F15D0B8F5801F1FD111E0B8F572
:10135000001F0ED0B8F5041F18D10AE0CB6815E0C5
:10136000CB681B1D12E0CB6808330FE0CB680C3351
:101370000CE08B682BB1012B4FF0080303D04561C3
:1013800004E0042302E0056100E00023FF2A01D805
:10139000064601E000F104064FEA840501D9A5F1F3
:1013A0002005D6F8008007FA05FC28EA0C0803FAA5
:1013B00005F548EA0508C6F800804D68ED0070D5CF
:1013C0003E4DAE6946F00106AE61AD6924F00306FC
:1013D00005F0010500953A4D06EB050CDCF80850C8
:1013E000A607360F07FA06F825EA0805DFF8D480C5
:1013F000404503D14FF0000825E052E0DFF8C880F7
:10140000404502D14FF001081DE0DFF8C0804045A3
:1014100002D14FF0020816E0DFF8B480404502D157
:101420004FF003080FE0DFF8AC80404502D14FF0E9
:10143000040808E0DFF8A080404502D14FF005081D
:1014400001E04FF0060808FA06F848EA0508CCF86B
:1014500008804D68D9F80060ED024D4601D516436D
:1014600000E096432E604D68DAF80060AD02554604
:1014700001D5164300E096432E604D68DBF800600E
:10148000AD035D4601D5164300E096432E604D68DE
:10149000DEF80060ED03754601D5164300E0964383
:1014A0002E60641C0A681646E2407FF429AFBDE84E
:1014B000F88F0000080401400000111000100240E5
:1014C0000000014000080140000C014000100140F4
:1014D0000014014000180140001C01400AB10161E4
:1014E00070470904FBE7000001488068704700006E
:1014F0009C00002002488168027811448160704796
:101500009C000020074810B5016841F010010160FF
:10151000032000F075F80F2000F006F800F024F822
:10152000002010BD0020024070B50D4D04464FF460
:101530007A712878B1FBF0F00A490968B1FBF0F044
:1015400000F0AEFB48B9102C07D200222146501EF5
:1015500000F036F800206C6070BD012070BD000006
:101560009C000020A80000200C4808B5816941F0CB
:1015700001018161816901F001010091C16941F0BE
:101580008051C161C06900F08050009004484168FA
:1015900021F0E06141F00071416008BD001002409F
:1015A00000000140002809DB00F01F0201219140EA
:1015B0004009800000F1E020C0F8001170470000F1
:1015C000F0B40E4B1B680C46C3F30223C3F10705AE
:1015D000042D00D90425191D072901D2002300E09C
:1015E000DB1E012606FA05F1491E214099409E4066
:1015F000761E16403143F0BC02F0F8BC0CED00E062
:10160000064900F0070208684FF6FF03184040EA59
:101610000220034A10430860704700000CED00E010
:101620000000FA0510B501460020284C04292FD0EF
:101630000BDC012930D0022929D100F06BF9616857
:10164000C1F38131491C49001FE0082920D010292D
:101650001DD161682268D20119D51D48C1F38342AA
:10166000C903805C0AD56168194AC1F34041921EE2
:10167000515C184AB2FBF1F1484301E01649484376
:101680006168490203D440000321B0FBF1F010BDB2
:10169000BDE8104000F04EB9226AC2F301210129D1
:1016A00003D1920701D5C80310BD022905D1626A92
:1016B000920702D549F6404010BD0329FCD12168AC
:1016C0008903F9D54FF2244010BD000000100240FC
:1016D0003A84000800127A0000093D002DE9F84321
:1016E00005460078354CC00754D0E0690026C0009C
:1016F00008D4E06940F08050E061E069012600F024
:10170000805000902E480168C90512D401688046B7
:1017100041F480710160FFF7E7FE074605E000BF76
:10172000FFF7E2FEC01B642823D8D8F80000C005EC
:10173000F6D5206A10F4407021D0A98801F44071D8
:1017400081421CD0206A1F49012220F440700A60A7
:1017500000220A602062C00711D0FFF7C5FE0746CD
:1017600041F2883808E000BFFFF7BEFEC11B4145CB
:1017700002D90320BDE8F883206A8007F4D5206AE7
:10178000696820F44070084320621EB1E06920F0CF
:101790008050E0612878800705D56068A96820F44A
:1017A0004040084360602878C00605D560686969D4
:1017B00020F48000084360600020DBE70010024056
:1017C00000700040400442422DE9F0470F460500FA
:1017D00061D0434E306800F00700B84209D230684B
:1017E00020F0070038433060306800F00700B8424E
:1017F00051D128683B4C810712D5400703D560685A
:1018000040F4E06060602878000703D5606840F429
:10181000605060606068A96820F0F0000843606074
:101820002878C00728D06868012810D021680228CD
:1018300010D0890700292EDA616821F003010143E5
:101840006160FFF751FE804641F288390DE0216862
:101850008903EFE78901EDE7FFF746FEA0EB0801FA
:10186000494502D90320BDE8F0876068696800F047
:101870000C00B0EB810FEFD1306800F00700B842E8
:101880000BD9306820F0070038433060306800F032
:101890000700B84201D00120E5E72878400705D5C8
:1018A0006068E96820F4E060084360602878000719
:1018B00006D56068296920F4605040EAC100606084
:1018C00000F038F86168084AC1F30311515CC84060
:1018D0000649086006480068FFF726FE0020C2E7B8
:1018E00000200240001002404A840008A8000020A6
:1018F000A00000200448054900684968044AC1F373
:101900000221515CC8407047A8000020001002402E
:101910005A8400080448054900684968044AC1F32C
:10192000C221515CC8407047A8000020001002404E
:101930005A8400080E4A51680E4801F00C03042B2B
:1019400011D0082B0FD10C48C1F38343C903C05CED
:101950000AD55168084AC1F34041921E515C054ABC
:101960005043B0FBF1F07047044948437047000012
:101970000010024000127A002884000800093D008F
:101980002DE9F84F040070D02078C04DC00749D031
:101990006868C0F38100012807D06868C0F381003F
:1019A000022809D16868C00306D52868800339D5A4
:1019B00060680028E7D035E06068B0F5803F0BD064
:1019C00010B1B0F5A02F11D0286820F48030286025
:1019D000286820F4802002E0286840F480302860E5
:1019E000606890B1FFF780FD06460AE0286840F481
:1019F00080202860F0E700BFFFF776FD801B642899
:101A000073D828688003F7D50CE0FFF76DFD064614
:101A100005E000BFFFF768FD801B6428F0D8286848
:101A20008003F7D420789A4E80074FF001094FF0D9
:101A3000000839D5686810F00C0F07D06868C0F34B
:101A40008100022809D16868C00306D4286880078D
:101A500014D52069012808D110E02069B0B1C6F87A
:101A60000090FFF741FD074605E00AE1FFF73CFD66
:101A7000C01B0228C4D828688007F7D52868616988
:101A800020F0F80040EAC10028600DE0C6F80080B0
:101A9000FFF72AFD074604E0FFF726FDC01B0228DA
:101AA00023D828688007F7D4207800072CD57948F8
:101AB000A169D9B1C0F80090FFF716FD074604E010
:101AC000FFF712FDC01B02280FD8686A8007F7D500
:101AD00071484FF4FA510068B0FBF1F0009000BF7C
:101AE0000098411E0091FAD20EE080E0C0F800801C
:101AF000FFF7FAFC074604E0FFF7F6FCC01B0228DC
:101B000075D8686A8007F7D42078400760D5E869FF
:101B10000027C00008D4E86940F08050E861E86917
:101B2000012700F0805000905C480168C90513D47B
:101B30000168834641F480710160FFF7D5FC82465D
:101B400006E000BFFFF7D0FCA0EB0A0064284ED8E7
:101B5000DBF80000C005F5D5E06801280AD008B11F
:101B6000052813D0286A20F001002862286A20F096
:101B7000040002E0286A40F001002862E06841F2B7
:101B8000883B98B1FFF7B0FC82460BE0286A40F032
:101B900004002862EEE700BFFFF7A6FCA0EB0A01F5
:101BA00059455AD8286A8007F6D50CE0FFF79CFC07
:101BB000824605E0FFF798FCA0EB0A0159454CD896
:101BC000286A8007F6D41FB1E86920F08050E861E8
:101BD000E06988B36968C1F38101022944D0022811
:101BE000C6F8608004D0FFF77FFC044638E034E09C
:101BF000FFF77AFC074604E0FFF776FCC01B0228DB
:101C00002BD828688001F7D4206AB0F5803F05D131
:101C10006868A16820F4003008436860D4E90801CE
:101C20000843696821F4741108436860C6F860903D
:101C3000FFF75AFC044606E025E000BFFFF754FC1E
:101C4000001B022809D828688001F7D51BE000BFD7
:101C5000FFF74AFC001B022802D90320BDE8F88FD9
:101C600028688001F4D40EE00128F7D06868226A61
:101C700000F48031914204D1616A00F4701088420E
:101C800001D00120EAE70020E8E700000010024050
:101C90000000424280044242A80000200070004040
:101CA00010B5401EB0F1807F01D3012010BD4FF070
:101CB000E02460610F21601702F098F90020A06114
:101CC00007202061002010BD7047704770B590F864
:101CD0003C20012A2CD0012480F83C40022280F8CC
:101CE0003D2003685A689D6822F070060A683243F6
:101CF0005A60104B02689A420ED00F4B9A420BD09A
:101D0000B2F1804F08D00D4B9A4205D00C4B9A424D
:101D100002D00C4B9A4204D1496825F08003194344
:101D2000916080F83D40002180F83C10084670BD6D
:101D3000022070BD002C014000340140000400402E
:101D400000080040000C004010B5040003D094F8D7
:101D50003D0010B107E0012010BD002084F83C00D8
:101D6000204600F01FF8022084F83D00211D206865
:101D700001F064FE012084F8460084F83E0084F8F7
:101D80003F0084F8400084F8410084F8420084F861
:101D9000430084F8440084F8450084F83D000020A6
:101DA00010BD000008B500680B49884212D10B48ED
:101DB000C16941F00201C161C069002200F0020066
:101DC000009011461D20FFF7FBFBBDE808401D20D9
:101DD000FFF7E8BB08BD000000040040001002400F
:101DE00090F83D10012901D001207047022180F8B0
:101DF0003D100168CA6842F00102CA6000680E49DD
:101E000088420ED00D4988420BD0B0F1804F08D0E7
:101E10000B49884205D00B49884202D00A498842C2
:101E200004D1816801F00701062903D0016841F05F
:101E30000101016000207047002C01400034014086
:101E40000004004000080040000C004070B504464B
:101E500090F83C000025012817D0012684F83C604A
:101E6000022084F83D002068826822F0770222F484
:101E70007F4282600868502838D00DDC20284FD07F
:101E800005DC90B3102811D14AE0022070BD302843
:101E900046D040280AD13BE060282FD070280DD0D2
:101EA000B0F5805F03D0B0F5005F12D0012584F853
:101EB0003D60002084F83C00284670BDCB68D1E925
:101EC0000121206801F00DFE2068816841F0770152
:101ED00009E0CB68D1E90121206801F002FE206809
:101EE000816841F480418160E1E719E0CA6849688E
:101EF000206801F0CBFE5021206806E0CA684968DE
:101F0000206801F0D4FE6021206801F0F4FDCEE7E6
:101F1000CA684968206801F0B9FE40212068F4E7EA
:101F2000226801461046F0E72DE9F0410D46040015
:101F300003D094F83D0018B108E00120BDE8F0811D
:101F4000002084F83C00204600F040F8022084F88D
:101F50003D002068816844F2070291438160211DA1
:101F6000206801F06BFD226890689169166A2B6801
:101F7000AF69034340F20330814341EA0721A86877
:101F8000EF6908434FF6FC418843E96840EA0720BF
:101F9000014328692F6A000140EA07300843696855
:101FA0006D6926F0220646EA0515294393602268EA
:101FB000906154F8460B0162012004F81F09E07596
:101FC0002076E0762077A0750020B7E710B586B0C0
:101FD000002100910191029103911B4C03681B4861
:101FE000C0210122A34214D1C36943F00403C36199
:101FF000C36903F004030493836943F00803836116
:102000008069009100F0080004900292694610482F
:1020100016E0104CA34215D1836943F40053836149
:10202000836903F400530493836943F010038361CD
:102030008069009100F01000049002926946064801
:10204000FFF750F906B010BD000800400010024034
:10205000000C0140003401400010014070B590F8C0
:102060003E60044690F83F5090F8423090F843208C
:10207000022021B104290ED0012E1BD114E0012E23
:1020800018D1012B16D184F83E0084F842000122B9
:102090000021206820E0012D0CD1012A0AD184F80A
:1020A0003F0084F8430014E0012D03D1012B01D13E
:1020B000012A01D0012070BD84F83E0084F83F0061
:1020C00084F8420084F8430001220021206801F0D6
:1020D000FBFC01220421206801F0F6FC2068016865
:1020E00041F001010160002070BD704770B50446E9
:1020F000006801694FF00005C943890715D4C1681C
:10210000C943890711D4E91E0161012020772068A5
:1021100080698007204602D0FFF7E7FF04E000F067
:10212000D1F8204600F063F9257720680169C9439A
:10213000490717D4C168C943490713D46FF0040194
:102140000161022020772068806910F4407F2046DA
:1021500002D0FFF7CAFF04E000F0B4F8204600F018
:1021600046F9257720680169C943090716D4C16873
:10217000C943090712D46FF00801016104202077D8
:102180002068C0698007204602D0FFF7AEFF04E058
:1021900000F098F8204600F02AF9257720680169B8
:1021A000C943C90617D4C168C943C90613D46FF01F
:1021B00010010161082020772068C06910F4407F79
:1021C000204602D0FFF791FF04E000F07BF82046A4
:1021D00000F00DF9257720680169C943C90708D1C6
:1021E000C168C943C90704D1891E0161204600F0B6
:1021F00059F920680169C943090609D4C168C9436E
:10220000090605D46FF0800101612046FFF75CFDEF
:1022100020680169C943490609D4C168C943490610
:1022200005D46FF040010161204600F0C5F9206837
:102230000169C94389060BD4C168C943890607D41B
:102240006FF0200101612046BDE87040FFF73DBD01
:1022500070BD000010B586B000210091019102917F
:10226000039100681349884221D11348816941F0E4
:1022700004018161816901F004010491816941F0E7
:10228000080181618069022400F008000490C020E8
:10229000CDE90004694609480394FFF723F80320B9
:1022A000CDE90004694606480394FFF71BF806B021
:1022B00010BD000000040040001002400008014072
:1022C000000C0140704770B5044690F83C000026B1
:1022D0000D4601280FD0012084F83C006AB1042A81
:1022E0001DD0082A2FD00C2A3FD00126002084F8C8
:1022F0003C00304670BD022070BD206801F004FC37
:102300002068816941F0080181612068816921F0BC
:1023100004018161206881692A69114311E0206804
:1023200001F022FC2068816941F40061816120682C
:10233000816921F480618161206881692A6941EAAB
:1023400002218161D2E7206801F044FC2068C16964
:1023500041F00801C1612068C16921F00401C16137
:102360002068C1692A69114311E0206801F066FC08
:102370002068C16941F40061C1612068C16921F42C
:102380008061C1612068C1692A6941EA0221C16195
:10239000ACE710B5040003D094F83D0010B107E09D
:1023A000012010BD002084F83C00204600F01EF8FB
:1023B000022084F83D00211D206801F03FFB012030
:1023C00084F8460084F83E0084F83F0084F840001A
:1023D00084F8410084F8420084F8430084F8440003
:1023E00084F8450084F83D00002010BD7047704718
:1023F00010B50446022249B104290ED0082913D091
:1024000094F84100012816D0012010BD94F83E0038
:102410000128F9D184F83E200FE094F83F0001280C
:10242000F2D184F83F2008E094F840000128EBD175
:1024300084F8402001E084F841200122206801F066
:1024400043FB13492068134A884201D0904203D1CC
:10245000436C43F400434364206888420DD09042AB
:102460000BD0B0F1804F08D00B49884205D00B4902
:10247000884202D00A49884204D1816801F00701EC
:10248000062903D0016841F001010160002010BD60
:10249000002C0140003401400004004000080040CE
:1024A000000C00402DE9F04700683549884264D1AE
:1024B000344C3548A688761CA6800768786ADFF811
:1024C000CC8000B22080D8F80010496A49420DB291
:1024D0006580FEF796F8DFF8B8904946FDF7FCFEF8
:1024E0002C49FDF72BFF2C49FDF728FF6FF0010168
:1024F000FDF762FF8246A0602846FEF782F8494653
:10250000FDF7EAFE2549FDF719FF0025E0600146C9
:102510007D62D8F800004562F0072ED15046FDF7E5
:1025200083FE691EFDF748FFFEF7A6F81C4A1D4B07
:10253000FDF7F5FF1C4A1D4BFDF7F1FF07460E4660
:102540002069FEF799F83A463346FDF741FFFEF75A
:10255000A6F820615146164801F0ACF8FEF75FF886
:10256000E0621448E16801F0A5F8FEF758F801466A
:102570002063E06A00F0B8FDA580BDE8F0870000A8
:1025800000040040000000204C01002094010020C5
:102590000000C8420000F041000050410000C34468
:1025A0007B14AE47E17A943FBA490C022B87A63FD1
:1025B000240700204807002070477047704700003C
:1025C000F8B5016804460868CA684B6910F00F0F37
:1025D0004FF000055AD003F0010602F4907737431C
:1025E00065D0C10705D0D10503D5616C41F001016B
:1025F0006164410705D5D90703D0616C41F0020140
:102600006164810705D5D90703D0616C41F00401ED
:102610006164010707D502F02001314303D0616CEA
:1026200041F008016164616C00293BD0800604D54B
:10263000900602D5204601F07BFB20684069616C62
:10264000C0F3801001F00801014320462BD001F0B7
:1026500048FB20684069400621D52068143050E8C6
:10266000001F21F0400140E80012002AF5D1E06B84
:10267000A8B16D494163E06BFEF78AFD002811D0D7
:10268000E06B416B01B0BDE8F040084783060ED512
:1026900093060CD52046BDE8F84001F049BB204622
:1026A000FFF78CFFF8BDFFF789FF6564F8BD266B67
:1026B0002023012E7CD1C6067AD5D60678D50868A7
:1026C0004868009048694FF00206400640D5E16B2B
:1026D000086840680004000CE8D0A28D8242E5D969
:1026E000E085886920282DD020680C3050E8001F34
:1026F00021F4807140E80012002AF5D121681431DC
:1027000051E8000F20F0010041E80002002AF5D155
:102710002068143050E8001F21F0400140E800120A
:10272000002AF5D184F84230256320680C3050E847
:10273000001F21F0100140E80012002AF5D1E06BE3
:10274000FEF702FD6663A08DE18D401A81B22AE09A
:10275000A08DE18D401A81B2E08D0028A6D000291D
:10276000A4D022680C3252E8000F20F4907042E8A6
:102770000007002FF5D12068143050E8002F22F018
:10278000010240E80027002FF5D184F8423025638C
:1027900020680C3050E8002F22F0100240E800239F
:1027A000002BF5D166632046FFF707FFF8BDFFE772
:1027B00005062BD5150629D594F841002128F5D119
:1027C000A068B0F5805F01D12069B0B1206A411CDA
:1027D0002162216800784860E08C401E0004000CF3
:1027E000E084E3D12068C16821F08001C1602068E5
:1027F000C16841F04001C160D8E7206A0088C0F399
:1028000008004860206A801C2062E5E74006CDD5BC
:102810005006CBD5CA68204622F04002CA6084F830
:10282000413000F0CCF8C1E7D33C000870B504009B
:1028300004D094F84100002510B106E0012070BDDD
:1028400084F84050204600F023F8242084F841000A
:102850002068C16821F40051C160204601F0CAFA25
:102860002068016921F4904101612068416921F0EB
:102870002A0141612068C16841F40051C16065646A
:10288000202084F8410084F842006563002070BD78
:1028900030B585B00024009401940294039400683C
:1028A000184988422CD11848816941F480418161DE
:1028B000816901F480410491816941F004018161E1
:1028C0008069124D00F0040004904FF400700090F5
:1028D000022001900320039069462846FEF702FD7E
:1028E0002815CDE90004694628460294FEF7FAFC53
:1028F000002211462520FEF763FE2520FEF752FE3A
:1029000005B030BD00380140001002400008014011
:102910002DE9F843044690F84200994616460D46C4
:10292000202802D00220BDE8F883ADB1A6B1002076
:102930006064222184F842102063FEF7D5FDA6854D
:102940008046E685A0684FF48057B84201D12069DF
:1029500020B12E46002526E00120E4E7002622E0F3
:102960004346002220212046CDF8009001F09EFA37
:1029700008B10320D7E726B1A068B8421BD038B110
:1029800008E020684068C0F3080025F8020B07E063
:10299000206980B12068406800F07F0006F8010BD4
:1029A000E08D401EE085E08D0028D9D1202084F8FC
:1029B00042000020B7E720684068EFE770477047A3
:1029C000FEE770B50D46044600F0C0F8204600F062
:1029D0008DF800F003F9284600F088F800F0FEF8C2
:1029E00000F0B4F8641CE0B200F080F800F0F6F8F3
:1029F000002000F045F8044600F0D0F8204670BDF5
:102A000070B50D4C0025C4F8B8510C48016821F090
:102A100070410160016841F040510160C4F8BC514F
:102A2000012004F5DC7400F0A7FF0120206000F015
:102A3000A3FF256070BD000000802142040C01400E
:102A400070B50D4C0025C4F8B8510C48016821F050
:102A500070410160016841F0405101600126C4F8F5
:102A6000BC61304604F5DC7400F086FF266001206E
:102A700000F082FF256070BD00802142040C0140FF
:102A80002DE9F047814617480024016821F0704184
:102A90000160016841F000410160134E2546274660
:102AA0004FF00108C6F8B871022000F065FFC6F8C3
:102AB000B8816006040ED6F83C0108B1641CE4B28B
:102AC000022000F059FF6D1CEDB2082DEAD3B9F1D8
:102AD000000F02D0FFF794FF01E0FFF7B1FF20469F
:102AE000BDE8F087040C0140008021422DE9F0414F
:102AF00006461448016821F070410160016841F008
:102B000040510160104C0027C4F8B8713D464FF0A9
:102B10000108F009C4F8BC017006060E012000F09F
:102B20002BFFC4F8B881012000F026FFC4F8B8716B
:102B3000012000F021FF6D1CEDB2082DE9D3BDE8A6
:102B4000F0810000040C01400080214270B5114862
:102B5000016821F070410160016841F0405101605D
:102B60000D4C0120C4F8BC01D4F83C1149B1C4F8A3
:102B7000B80100F001FF0025C4F8BC51D4F83C01B5
:102B800008B1002070BD012000F0F6FEC4F8B85175
:102B9000012070BD040C0140008021420D4810B599
:102BA000016821F070410160016841F0405101600D
:102BB000094C0020C4F8B801C4F8BC01012004F598
:102BC000DC7400F0D9FE012020606060BDE8104098
:102BD00000F0D2BE040C01400080214270B51348C1
:102BE0000024016821F070410160016841F000415A
:102BF00001600F4D0126C5F8BC61304600F0BCFEF7
:102C0000C5F8B86107E0641CE4B2322C03D9FFF7C1
:102C1000C5FF002070BD012000F0AEFED5F83C01DC
:102C20000028F0D1C5F8B801012070BD040C0140A6
:102C30000080214210B51446FFF7C3FE207001202A
:102C400010BDF8B515461C460E4607466A46FFF706
:102C5000F1FF01209DF80010A8400CB1084301E0ED
:102C600021EA0000C2B28DF800203146384600F05B
:102C70002BF8F8BD2DE9F84314461D460F46804653
:102C80006A46089EFFF7D6FF00281BD0611CFF2074
:102C9000C4F1080200FA01F12A44521ED040014357
:102CA000C5F108008640F2B2C4F10700C2409DF8A9
:102CB0000000084010438DF80000C2B2394640467B
:102CC00000F002F8BDE8F88307B502AB012200F07E
:102CD00001F80EBD2DE9F0411E461546884607460F
:102CE0000024FFF733FF3846FFF700FFFFF776FFBA
:102CF0004046FFF7FBFEFFF771FF06E0305DFFF790
:102D0000F5FEFFF76BFF641CE4B2AC42F6D3FFF7AD
:102D100045FF0120BDE8F08110B5022000F011F858
:102D2000032000F020F8002000F014F8002000F04C
:102D30002FF8002000F026F8BDE81040002000F039
:102D40001BB808B50323009002226B21D020FFF7A7
:102D500091FF08BD08B50223009004221C21D02059
:102D6000FFF788FF08BD08B50223009004221B214D
:102D7000D020FFF77FFF08BD034601223721D02076
:102D8000FFF75FBF034605226A21D020FFF759BF36
:102D9000034606226B21D020FFF753BF3EB500212A
:102DA0001148009101910F4A029102608160017304
:102DB000017501244FF460220461C2614160FEF795
:102DC00007F808B1FDF77FFF0B20CDE900040220D2
:102DD000029069460448FDF779FF002801D0FDF70D
:102DE00072FF3EBD00280140D40000202DE9F041D3
:102DF00086B000252F4800950195029503958169BD
:102E000041F010018161816901F010010491816933
:102E100041F020018161816901F020010491816903
:102E200041F004018161816901F00401049181692B
:102E300041F00801816180691F4F00F00800049093
:102E4000002244F204013846FEF748FBDFF86C80AC
:102E500000224FF440414046FEF740FB012238215A
:102E60004046FEF73BFB4FF48040012402268DE8EC
:102E7000710069463846FEF735FA0420CDE90004B2
:102E8000CDE9024669463846FEF72CFA4CF2380086
:102E90008DE8710069464046FEF724FA6002009012
:102EA0000748CDE9010469464046FEF71BFA06B023
:102EB000BDE8F0810010024000100140000C01400C
:102EC0000000211010B58EB00024079408940994D6
:102ED0000A940B941C2168460C94FDF78DF92B483D
:102EE000294901604721C0E9011442F20F71C0E98C
:102EF000031480218161FEF727FF08B1FDF7E3FE8F
:102F00004FF48050079007A92048FEF79FFF08B1B3
:102F1000FDF7D9FE1D48FFF73CFA08B1FDF7D3FED7
:102F20000B940BA919480C94FEF7D0FE08B1FDF7DD
:102F3000CAFE6020CDE900040294002269461348CD
:102F40000494FFF7C0F908B1FDF7BDFE04226946FD
:102F50000E48FFF7B8F908B1FDF7B5FE082269463B
:102F60000A48FFF7B0F908B1FDF7ADFE0C2269463B
:102F70000648FFF7A8F908B1FDF7A5FE0348FFF7DB
:102F800069F90EB010BD00000004004004010020EB
:102F900010B58CB024216846FDF72EF9002417489F
:102FA000099415490A94C0E900144FF6FF71C0E96D
:102FB00002418021046181610320CDE900040120E8
:102FC000CDE9020406210491CDE90540CDE9074190
:102FD00069460A48FEF7A8FF08B1FDF774FE099498
:102FE00009A906480A94FEF771FE002801D0FDF7F2
:102FF0006AFE0CB010BD0000000800404C0100202B
:1030000010B58CB024216846FDF7F6F80024174867
:10301000099415490A94C0E900144FF6FF71C0E9FC
:10302000024180210461C0E905410320CDE900048B
:103030000120CDE9020406210491CDE90540CDE946
:10304000074169460948FEF76FFF08B1FDF73BFEEF
:10305000099409A905480A94FEF738FE002801D012
:10306000FDF731FE0CB010BD00340140940100208A
:103070000C4810B50A4901604FF416514160002117
:1030800081600C22C160C0E904128161C161FFF757
:10309000CDFB002803D0BDE81040FDF714BE10BDE5
:1030A00000380140DC010020FEE7000070B50B4A4B
:1030B0000C4D10600A480160E96800F0FBFAFDF76A
:1030C000AEFA04460548A96800F0F4FAFDF7A7FA3D
:1030D0002146BDE8704000F007B80000240700203A
:1030E000480700200000002010B50B4600F03DFF0F
:1030F0000246184600F039FF0446104600F006F874
:103100002046BDE8104000F013B800000749002336
:1031100000280A6803DD50630868836370475363BF
:10312000FADA0968C0F100008863704704010020E2
:10313000424208480023002A016803DDCA63006890
:1031400003647047CB63FADA0068C2F100010164DE
:103150007047000004010020FEE7000010B40021C9
:10316000084B0A465FF0000003EBC004401CC0B2ED
:1031700062548028F8D3491CC9B20829F2D310BC84
:1031800000F096B82403002010B57F2816D83F29F8
:1031900014D80723A3EBD10301F00701C1F1070401
:1031A0000121A140064CDBB204EBC000002AC25C46
:1031B000C9B201D00A4300E08A43C25410BD0000E6
:1031C0002403002010B5394C0020C4F8900164207D
:1031D00004F5C874FEF774F8012020600021AE20C9
:1031E00000F0A8F90021D52000F0A4F9002150201A
:1031F00000F0A0F90021A82000F09CF900213F2058
:1032000000F098F90021D32000F094F9002108463D
:1032100000F090F90021402000F08CF900218D2071
:1032200000F088F90021142000F084F9002120200A
:1032300000F080F90021022000F07CF90021A1209B
:1032400000F078F90021C02000F074F90021DA20A4
:1032500000F070F90021122000F06CF900218120AB
:1032600000F068F90021EF2000F064F90021D92076
:1032700000F060F90021F12000F05CF90021DB2072
:1032800000F058F90021302000F054F90021A4206A
:1032900000F050F90021A62000F04CF90021AF20E9
:1032A00000F048F9BDE81040FFF758BF0080214208
:1032B00070B5114E002400BF04F1B000C0B200216F
:1032C00000F038F90021084600F034F90021102000
:1032D00000F030F95FF0000506EBC5000121005D4C
:1032E00000F028F96D1CEDB2802DF5D3641CE4B21A
:1032F000082CE1D370BD0000240300207CB54FF4FE
:1033000080613A48FCF778FF394CE068FDF7B4F982
:1033100005460E46A068FDF7AFF9CDE90056024616
:103320000B4634A1384800F039FE0021364A0846E1
:1033300000F0E0F82069FDF79FF902460B4633A143
:10334000314800F02BFE304A0A21002000F0D2F86C
:1033500001F068FBFDF790F902460B462FA12A48C1
:1033600000F01CFE284A1421002000F0C3F82E486B
:103370000068FDF781F902460B462CA1224800F0B7
:103380000DFE214A1E21002000F0B4F82A480068F2
:10339000FDF772F902460B4628A11B4800F0FEFD1E
:1033A000194A2821002000F0A5F827480068FDF7F9
:1033B00063F902460B4625A1134800F0EFFD124ABF
:1033C0003221002000F096F8206AFDF755F90246F8
:1033D0000B4621A10C4800F0E1FD0B4A32214020B0
:1033E00000F088F8BDE87C40FFF762BF24030020AE
:1033F0000000002076313A2025322E326676323AAD
:103400002025322E32660000B40000204D696C6524
:103410006167653A2025322E32660000553A202534
:10342000322E32665600000078000020523A2025E5
:10343000322E3166000000007C000020503A20252A
:10344000322E31660000000080000020593A20250D
:10345000322E316600000000443A2025322E3266BA
:10346000000000002DE9FF4F203A1F460C46894618
:1034700002F0FF0A0025DDF834B032E00C2F09D04D
:103480001A4901EB0A104FF00008465D300607D5D7
:103490005A4609E016490AEB4A0001EB8000F2E7C0
:1034A000BBF1000F12D0002221460098FFF76CFEFE
:1034B0007006641C060EE4B2A4EB0900B84207D102
:1034C00000984C46401CC0B2009008E00122EBE797
:1034D00008F1010000F0FF08B8F1080FD6D36D1C09
:1034E000EDB2BD42CAD3BDE8FF8F0000F071000805
:1034F0007C6D0008F8B516460D460446012714E019
:103500007A2C02D900241035EDB23A2D03D90024CB
:103510002546FFF723FE009732780C2329462046E4
:10352000FFF7A0FF0834E4B2761C30780028E7D11A
:10353000F8BD000070B500250E4A012311B1C2F894
:103540008C3101E0C2F88C510B4C0021C4F8B85109
:10355000060602D5C2F8943101E0C2F89451C4F8CD
:10356000B8314006491C000EC9B20829EED3C2F892
:103570008C3170BD00802142000022422DE9F041D3
:10358000044641600068FCF7A1FEA0602269054680
:1035900001461046FCF748FE15492061884202DCCE
:1035A0001449884200D92161E66828463146FCF773
:1035B0008DFEE169FCF790FE07462169A069FCF7E2
:1035C0008BFE804629466069FCF786FE4146FCF783
:1035D0002BFE3946FCF728FE074A266220F0004100
:1035E000E5606060914200DA0020BDE8F0810000F3
:1035F00000007A4400007AC4CDCC4C3D2349002021
:10360000234A086048608860C86008614A610862AF
:10361000204AC1E9062024311F4A086048608860BA
:10362000C86008614A6108621C4AC1E906206C3121
:1036300001F1100C0860486088604FF07C52184B14
:10364000C8608CE80D00C861203101F1100C0860E1
:1036500048608860C8608CE80D00C8616839114A0C
:10366000086048608860C860C1E904020E4AC1E988
:10367000060224310D4A086048608860C860C1E9CC
:10368000040288610A48C8617047000024070020CE
:10369000000096440000C84100601F4500000C4235
:1036A0009A99993E0AD7A33CCDCC4C3E0AD7A33D6C
:1036B000CDCCCC3D2DE9F0410446006810F0FF4F21
:1036C0002ED06160FCF702FEA0602269054601462B
:1036D0001046FCF7A9FD13492061884202DC12491B
:1036E000884200D92161E76828463946FCF7EEFD9B
:1036F000E169FCF7F1FD06462169A069FCF7ECFDE4
:10370000804629466069FCF7E7FD4146FCF78CFDE1
:103710003146FCF789FD2762E5606060BDE8F08115
:103720000020FBE700007A4400007AC470470000E4
:103730002DE9F04F8FB0714C0CAD70490DAB2631B7
:1037400008AA881FCDE9004501F0ECFD0028F4D15E
:103750002088C0057ED50898FCF753FF6FF01D0642
:103760003146FCF729FE804660600998FCF749FF66
:103770003146FCF721FE0746A0600A98FCF741FF9E
:103780003146FCF719FE0546E0600B98FCF739FF5F
:103790003146FCF711FE0646206101214046FCF748
:1037A0000BFE2946FCF798FD05464FF04048414680
:1037B0003846FCF791FD3146FCF78EFD2946FCF7B3
:1037C00033FDFCF759FF01F055F9DFF834A14FF054
:1037D00066394A465346FCF7A2FEC9F1000B5A4629
:1037E000484BFCF796FEFCF75AFFA061E068012108
:1037F0000546FCF7E1FD29460390FCF76DFD054603
:10380000A06841460646FCF767FD3146FCF764FDBB
:103810002946FCF75BFD4FF07E51FCF705FDFCF7F8
:103820002BFF07460D4601216068FCF7C5FD3146B8
:10383000FCF752FD064603982169FCF74DFD314621
:10384000FCF7F2FCFCF718FF3A462B4601F05AFB56
:103850004A4600E04EE05346FCF761FE4FF033323B
:10386000294BFCF756FEFCF71AFF606121690391B2
:103870000846FCF731FDE168074608460291FCF76F
:103880002BFDA168064608460191FCF725FD6168FD
:10389000054688464046FCF71FFD2946FCF7C4FC58
:1038A0003146FCF713FD3946FCF710FDFCF7E4FE4A
:1038B00006460D4640460399FCF70EFD0746DDE936
:1038C0000101FCF709FD3946FCF7AEFC0121FCF7CC
:1038D00073FDFCF7D1FE32462B4601F013FB4A463E
:1038E0005346FCF71CFE5A46084BFCF771FDFCF7EB
:1038F000D6FEE0610FB0BDE8F08F0000640000204C
:1039000066A64C409999B93F33331F40999920409E
:1039100070470000401EB0F1807F01D30120704746
:103920004FF0E0214861054AF02082F8140D002094
:103930008861072008610020704700000FE000E068
:1039400001B50C484FF47A710068B0FBF1F0FFF755
:10395000E1FF00204FF0E02103E00A69D203FCD52B
:10396000401C009A9042F8D3086920F001000861D9
:1039700008BD0000A800002001B50B480B490068F5
:10398000B0FBF1F0FFF7C6FF00204FF0E02103E0AD
:103990000A69D203FCD5401C009A9042F8D308690A
:1039A00020F00100086108BDA800002040420F007F
:1039B000FDF7A0BD30B595B028216846FCF71CFC8A
:1039C00014210AA8FCF718FC18210FA8FCF714FC16
:1039D00001210804CDE9001000250295022404917C
:1039E000CDE907404FF4E01009906846FDF7C8FFA5
:1039F00008B172B6FEE70AA90F2081E831004FF442
:103A00008060CDE90D0502210AA8FDF7DDFE08B1B1
:103A100072B6FEE74FF4004011900F940FA8FDF727
:103A20005DFE002801D072B6FEE715B030BD7047CC
:103A30000148FEF75BBB000004010020F0B50268FE
:103A40001C4B1D4D1D4E1E4F1E4C4FF0804C98427E
:103A500009D0A04207D0604505D0A84203D0B042AB
:103A600001D0B84204D122F0700E4A6842EA0E0238
:103A7000984209D0A04207D0604505D0A84203D0A3
:103A8000B04201D0B84203D122F44075CA682A433B
:103A90004D6922F080022A4302608A68C2620A6885
:103AA0008262984201D0A04201D1096901630121DB
:103AB0004161F0BD002C01400004004000080040BE
:103AC000000C00400034014010B501F01F0301213B
:103AD000046A99408C430462016A9A40114301626E
:103AE00010BD10B5846842EA032224F47F440A43DF
:103AF0002243826010BD826822F070020A4342F0C5
:103B00000701816070470000F0B5036A026A22F085
:103B10000102026242688469124E24F073050C6847
:103B20002C4323F002058B682B430D4DA84201D096
:103B3000B04205D123F00807CB683B4323F00403D0
:103B4000A84201D0B04205D14D6922F4407215431C
:103B50008A692A4342608461496841630362F0BD17
:103B6000002C014000340140F0B5026A036A23F0E2
:103B700010030362436884690D6824F4E64444EA50
:103B800005248D6822F0200242EA05120F4D104EE6
:103B9000A84201D0B04206D1CF6822F0800242EAAA
:103BA000071222F04002A84201D0B04207D14D696D
:103BB00023F4406343EA85038D6943EA8503436048
:103BC0008461496881630262F0BD0000002C0140FD
:103BD00000340140F0B5026A036A23F48073036283
:103BE0004368C46922F4007224F073050C68124E15
:103BF0002C438D6842EA05220E4DA84201D0B04206
:103C000006D1CF6822F4006242EA072222F48062E1
:103C1000A84201D0B04207D14D6923F4405343EA92
:103C200005138D6943EA05134360C4614968C163A4
:103C30000262F0BD002C01400034014030B5046A3E
:103C4000026A22F4805202624268C3690D6823F45A
:103C5000E64343EA05238D6824F4005444EA05341E
:103C6000084DA84202D0084DA84204D14D6922F463
:103C7000804242EA85124260C3614968016404627D
:103C800030BD0000002C01400034014010B5036A33
:103C9000046A24F001040462846924F0F00444EA14
:103CA000021423F00A020A438461026210BD10B5B7
:103CB000036A046A24F010040462846923F0A003F8
:103CC00024F4704444EA023243EA01118261016241
:103CD00010BD10B5406A0021C185C184FEF76EFC9D
:103CE00010BD01680C3151E8002F22F4907241E8B8
:103CF0000023002BF5D10168143151E8002F22F088
:103D0000010241E80023002BF5D1016B012909D103
:103D100001680C3151E8002F22F0100241E8002325
:103D2000002BF5D1202180F842100021016370475B
:103D300008B590F84210222901D0022008BD8268FF
:103D40004FF480539A4201D1016921B1816A9A42AC
:103D50001BD04AB10AE00268816A5268C2F30802C5
:103D60000A80816A891C08E0026972B1026852689F
:103D700002F07F020A70816A491C8162C18D491E6E
:103D80000904090CC18503D01BE002685268F1E701
:103D90000168CA6822F02002CA600168CA6822F479
:103DA0008072CA6001684A6922F001024A612021DA
:103DB00080F8421000214163026B012A03D0FEF714
:103DC000FDFD002008BD016301680C3151E8002FA2
:103DD00022F0100241E80023002BF5D101680A68A7
:103DE000D20602D50A6849680091818DFEF7E5FB8D
:103DF000E7E7000070B5044600680169E26821F455
:103E00004051114301612169A06808436169084379
:103E10002168CA6841F20C639A430243CA60206871
:103E20004169A26921F44071114341611E49206832
:103E3000884202D1FDF76EFD01E0FDF75BFD00EB6E
:103E4000C00101EB0012606864218000B2FBF0F356
:103E5000B3FBF1F36FF018067343B2FBF0F5B2FB5E
:103E6000F0F605EB8305322303EB0515B5FBF1F501
:103E7000B6FBF1F605F0F00505EB0615B2FBF0F622
:103E8000B2FBF0F0B0FBF1F06FF01802504306EB1C
:103E9000800003EB0010B0FBF1F0216800F00F0090
:103EA0002844886070BD0000003801402DE9F041D1
:103EB000984617460E460446069D27E0681C25D006
:103EC0002DB1FDF711FBA0EB0800A8421ED9206818
:103ED0000C3050E8001F21F4D07140E80012002A95
:103EE000F5D12068143050E8001F21F0010140E8AE
:103EF0000012002AF5D1202084F8410084F8420005
:103F0000002084F840000320BDE8F08120680068AC
:103F100036EA000004D00020B842CFD00020F3E7FA
:103F20000120F9E70D4810B500680068800610D53B
:103F30000B4A1078FF2801D3002010700949C0B245
:103F40000144401C10704FF47A7301220348FEF7BD
:103F5000DFFCBDE810400148FEF732BBDC01002069
:103F60003400002024020020FEE742F21071884253
:103F700002DA4942884200DC084670470FB4054B1C
:103F800010B503A9044A029800F070F910BC5DF85E
:103F900014FB0000B9590008AC0000200FB4084B16
:103FA00010B504A902AA039800F060F9044602A91A
:103FB000002000F0F2FC204610BC5DF814FB00006D
:103FC0009B490008490050EAC12018BF04204A0D4F
:103FD00018BF40F0010040F2FF72B2EB515F08BF22
:103FE00040F00200012808BF052070470907090EAC
:103FF000002804DB00F1E02080F80014704700F096
:104000000F0000F1E02080F8141D70472DE9F04109
:104010004F1E00EBC7010446D1E9000115461E46BC
:1040200037F006020DD02A463346FCF778FA7F1E99
:1040300004EBC703D3E90023FCF7CAF937F0060203
:10404000F1D1022F25D0042F13D0062F18BFBDE8C1
:10405000F0812A463346FCF762FAD4E90A23FCF7DA
:10406000B7F92A463346FCF75AFAD4E90823FCF795
:10407000AFF92A463346FCF752FAD4E90623FCF797
:10408000A7F92A463346FCF74AFAD4E90423FCF799
:104090009FF92A463346FCF742FAD4E90223FCF79B
:1040A00097F92A463346FCF73AFAD4E90023BDE8EB
:1040B000F041FCF78DB90122FCF778BCFCF788B918
:1040C0000022134610461146FCF701BC024A0020AC
:1040D0001107FCF76BBC000001FDFFFF02E008C800
:1040E000121F08C1002AFAD170477047002001E072
:1040F00001C1121F002AFBD170470000014908606E
:1041000070470000B00000202DE9FF5FDDE90220CC
:10411000010DDDF838B0024318D044F61050A1F27A
:10412000FF3141430D140F98012820D0A5EB0B005F
:10413000401C5FEA000A4FF00004474EDFF81C9174
:10414000A046504616D5CAF1000728E00F98012472
:1041500043A2012808D0002100980F9BC0E900214C
:10416000C0E90243BDE8FF9F6FEA0B01F4E7CBF122
:104170000000DEE7074612E0F80707D02246334684
:1041800040464946FCF7CBF98046894622463346ED
:1041900010461946FCF7C3F904460E467F10002F5F
:1041A000EAD1DDE90201BAF1000F42464B4602DADC
:1041B000FCF7B5F901E0FCF78AFB04460E46002245
:1041C000284BFCF723FC03D84FF0FF30014607E0F3
:1041D0000022254B20463146FCF7FAF8FCF7FDFBA0
:1041E000102409E0002C0ADB0A220023FCF789FADC
:1041F000019B30321A55641E50EA0102F2D1641C50
:10420000019AC4F1110314440F9A012A03D0012228
:1042100008430DD10AE0084304D000204FF0110BF1
:104220000F9080E7A3EB0B056D1E0DE05B4504DDF1
:104230004FF0000205F1010504E003DA4FF000023F
:10424000A5F10105002AECD000980F99C0E90231D0
:10425000C0E9004586E70000000024400000F03F70
:10426000300000000000F0430000E03F2DE9FF4F68
:1042700095B09B468946064600250FE2252877D152
:1042800000242746F84A0121059400E0044316F86B
:10429000013F203B01FA03F01042F7D130782A2881
:1042A00011D06FF02F033078A0F13002092A16D810
:1042B000059A44F0020402EB820203EB420210442E
:1042C000761C0590EFE759F8042B0592002A03DAD3
:1042D000504244F40054059044F00204761C3078B7
:1042E0002E2816D116F8010F44F004042A280DD008
:1042F0006FF02F023078A0F13003092B09D807EBBB
:10430000870302EB4303C718761CF3E759F8047BD5
:10431000761C30786C280FD006DC4C2817D0682823
:104320000DD06A2814D104E0742810D07A280FD157
:104330000DE044F400140AE044F4801401E044F475
:1043400040147278824202D104F58014761C761CE7
:10435000307866280BD013DC582877D009DC002889
:1043600075D04528F6D04628F4D047281AD19DE1CB
:1043700018E0632835D0642879D0652812D195E1FA
:10438000702873D008DC6728F1D069286FD06E28B8
:104390000DD06F2806D1B5E073282CD0752875D0C4
:1043A000782874D05A46179990476D1C75E1C4F36C
:1043B0000250022809D003280DD0D9F80010042893
:1043C0000DD00D6009F1040967E1D9F80010EA1772
:1043D000C1E90052F6E7D9F800100D80F2E70D7040
:1043E000F0E719F8041B8DF8001000208DF801008B
:1043F000EA46012003E059F804AB4FF0FF306107B3
:104400004FF0000102D40DE008F101018846B942E5
:104410000FDA8045F8DB1AF808100029F4D108E01B
:1044200008F1010188468142FADB1AF808100029D8
:10443000F6D105985B46A0EB080721463846179A47
:1044400000F094FA284400EB080507E04DE029E16C
:104450000DE01AF8010B5A4617999047B8F1010878
:10446000F7D25B4621463846179A13E142E00A220A
:104470000092C4F302524FF0000A022A08D059F801
:1044800004CB032A4FEAEC710AD00DE029E02AE0C0
:1044900009F1070121F00702F2E802C1914609E0A3
:1044A0000FFA8CFC4FEAEC71042A03D14FFA8CFC12
:1044B0004FEAEC71002907DA0A460021DCF1000C12
:1044C00061EB02012D2202E0220504D52B228DF89A
:1044D0000420012203E0E20701D02022F7E7904602
:1044E00059E00A2102E010220DE010214FF0000AED
:1044F00000910BE010224FF0000A44F0040408275A
:10450000009203E008224FF0000A0092C4F3025226
:10451000022A05D059F804CB0021032A08D009E06B
:1045200009F1070121F00702F2E802C1914605E016
:104530001FFA8CFC042A01D10CF0FF0C4FF000088C
:10454000220728D5702806D0009B83F0100353EA79
:104550000A0305D00EE040228DF80420012208E075
:104560005CEA010206D030228DF804208DF80500A7
:1045700002229046009B83F0080353EA0A030AD103
:104580005CEA010201D1620705D530228DF80420D2
:104590004FF001087F1E582804D034A003900EA8C5
:1045A00002900DE036A0F9E753466046009AFCF70A
:1045B000A8F884460398825C0298401E029002701C
:1045C0005CEA0100F0D1029806A9081A00F1200A5D
:1045D000600702D524F4803400E00127574502DD4E
:1045E000A7EB0A0000E0002000EB0A01009005980C
:1045F0004144401A0590E00306D45B462146179AD1
:10460000059800F0B3F90544002706E001A85A46D2
:10461000C05D179990476D1C7F1C4745F6DBE00392
:104620000CD55B462146179A059800F09FF9054482
:1046300004E030205A46179990476D1C0099481E97
:1046400000900029F5DC08E0029802995A460078AB
:10465000491C0291179990476D1CBAF10001AAF10B
:10466000010AF1DC65E10000092801003031323334
:10467000343536373839616263646566000000009E
:104680003031323334353637383941424344454688
:104690000000000000F058F90544761C307800282E
:1046A0007FF4ECAD19B02846BDE8F08F620700D466
:1046B000062709F1070222F0070CFCE80223E14675
:1046C00003F000485FEA080C02D00FF2702C0DE0F6
:1046D0005FEA045C02D50FF2682C07E05FEAC47C55
:1046E00002D00FF2602C01E0AFF2700C4FF0FF38F7
:1046F00023F00043CDF850C065280CD006DC4528D7
:1047000009D046281DD047283DD13DE0662818D065
:1047100067287ED138E00021112F01DB112000E055
:10472000781CCDE9000106A90EA8FFF7EDFCDDE934
:104730000F010E9A03910021009207F1010A0491E2
:104740004DE04FF000400097CDE9011006A90EA8FA
:10475000FFF7DAFCDDE90F0203920E9B11990022AC
:10476000DDF80CA00093049211B9791C00EB010A4A
:10477000B7EB0A0004D4C0F1FF3007F1010A04903E
:10478000AAEB0700019044E0012F00DA0127002185
:10479000112F01DD112000E03846CDE9000106A906
:1047A0000EA8FFF7B1FCDDE90F010E9A039100217D
:1047B00004910092BA4621070CD40399514500DABE
:1047C0008A46BAF1010F05DD009AAAF10101515C98
:1047D000302908D0B84202DA10F1040F06DA0121BC
:1047E000CDE9011015E0AAF10101E9E7002805DC97
:1047F000049901440491AAEB000102E0411C5145D7
:1048000000DD8A460499401A401C01904FF0004098
:104810000290200704D40198504501DBCDF80480B4
:1048200000208DF84F0002980DF14F07B0F1004FB6
:1048300025D02B200E9002984FF0020800280CDAA9
:10484000404202902D200E9007E00A210298FBF7CB
:1048500042FF3031029007F8011DB8F10001A8F1C4
:104860000108F2DC02980028EFD1791E0E9808703A
:10487000307800F0200040F0450007F8020D12A843
:10488000C01B00F107081498007800B1012000EB6C
:104890000A01019801EBE07105984144401A401E5D
:1048A0000590E00306D45B462146179A059800F070
:1048B0005DF805441498007818B15A461799904746
:1048C0006D1CE00324D55B462146179A059800F03D
:1048D0004DF805441CE00498002807DBDDE90301DE
:1048E000884203DD0098405C179901E01799302059
:1048F0005A469047049805F10105401C0490019820
:10490000401E019004D12E205A46179990476D1CE5
:10491000BAF10001AAF1010ADDDC05E017F8010B8C
:104920005A46179990476D1CB8F10001A8F101088B
:10493000F4DC5B462146179A0598ABE62D00000093
:104940002B000000200000002DE9F0410446002566
:104950001E461746880404D405E039462020B04797
:104960006D1C641EF9D52846BDE8F0812DE9F041A3
:10497000044600251E469046C80301D5302700E0B6
:104980002027880404D505E041463846B0476D1C11
:10499000641EF9D52846BDE8F0810A68531C0B60F7
:1049A000107070472DE9FE4F07460E4600256846F9
:1049B00001F00CF800246FF00F0AE8464FF00109EF
:1049C00057F8240056F82410401A00D54042FBF74F
:1049D00018FE5146FBF7F0FC58F8241011F0FF4F79
:1049E0000BD0FBF7ABFC4FF07E51FBF76FFC0A4995
:1049F00020F00040884205DC07E0084908440849E7
:104A0000884202D309FA04F00543641C032CD7DB67
:104A10002846BDE8FE8F0000295C0F3E666666C131
:104A20009A99D90010B50E48FCF72EFB32210C489C
:104A3000FCF78CFA08B10B4810BD0948FCF7C4F923
:104A4000FBF7E8FDFBF718FE074A084BFBF767FD8D
:104A50000022074BFBF763FDBDE81040FBF71FBECC
:104A6000D4000020000080BFB4D934E70C684A3F6E
:104A7000000026402DE9F04D8D4F21F0004A86B010
:104A800005460C46BA452ADBAAEB070028430AD0A4
:104A90008848824501DC1AD1CDB106B02846BDE870
:104AA000F04DFFF708BB844A844B2846FBF737FDDF
:104AB00007460E46824A834B28462146FBF72FFDC8
:104AC00006B03A463346BDE8F04DFBF781BC012005
:104AD000FFF714FB06B0BDE8F04DFFF7F1BA7A48D6
:104AE000824542DABAF1795F0BDA2846FFF76AFAB3
:104AF000042808BFFFF7EAFA284606B02146BDE8B9
:104B0000F08D2A460B461046FBF709FD8346024608
:104B10006E480E460B4606217844FFF777FA5A4650
:104B20003346FBF7FCFC804669488A465A463346C2
:104B300004217844FFF76AFA5A463346FBF7EFFC44
:104B400000223B46FBF744FC02460B4640465146DA
:104B5000FBF7BDFE2A462346FBF7E1FC06B02A46DA
:104B60002346BDE8F04DFBF733BC284624F0004156
:104B700000223D463B46FBF7CFFC4FF0FF32FBF7F0
:104B800015FF0646024653480F460B460621784459
:104B9000FFF73CFA32463B46FBF7C1FCCDE900018A
:104BA0004D4832463B4604217844FFF72FFA3246FF
:104BB0003B46FBF7B4FC00222B46FBF709FC83467F
:104BC00002913046394602F0B3F8804643480D461C
:104BD000504517DCDDE900015A46029BFBF777FEE2
:104BE00042462B46FBF79BFC42462B46FBF7F0FB6D
:104BF0000122FBF7DBFE304A304BFBF78AFC304AE0
:104C0000304B4CE04FF0000A52460B464046FBF753
:104C1000DFFBCDE9031052462B4610461946FBF741
:104C20007EFC32463B46FBF777FCDDE90332FBF7BF
:104C30004EFE06460F46DDE900015A46029BFBF791
:104C400046FE83460091012230463946FBF7AEFE10
:104C5000194A1A4BFBF760FC06460F4601224046F4
:104C60002946FBF7A3FE5A46009BFBF758FC324649
:104C70003B46FBF74EFC06460F46012250462946AE
:104C8000FBF794FE0E4DDFF858802A464346FBF7AB
:104C900043FC32463B46FBF73FFC2A464346FBF7C4
:104CA0003BFC002CD8BF81F0004106B0BDE8F08D80
:104CB0000000F03F0000F07F075C143326A6913C13
:104CC000182D4454FB21F93F0000E03F4C3900000F
:104CD00062390000D6380000EC3800003333EF3F73
:104CE000FB21E93F2DE9F84F04460D4621F0004035
:104CF00000917349814211DC7249884201DC06D17E
:104D00002CB120462946BDE8F84FFFF7D4B96E48CC
:104D1000002DCCBF6D496E49BDE8F88F6D498142C9
:104D200011DD6D498142D8BF4FF0FF366DDD204661
:104D30002946FFF747F9042808BFFFF7C7F92046BF
:104D40002946BDE8F88F6549654F25F00045814249
:104D500033DD6449814219DD002632464FF080433D
:104D600020462946FBF734FB80468A46012220462E
:104D70002946FBF71BFE00223B46FBF7CAFB4246D7
:104D80005346FBF7A4FD04460D463EE001260022F3
:104D9000BA463B4620462946FBF71AFB80460F469B
:104DA0000022534620462946FBF7B3FB42463B46CA
:104DB000FBF78DFD04460D4627E04B4981421BDD84
:104DC000DFF828A102260022534620462946FBF799
:104DD000A6FB00223B46FBF7FBFA80460F4600226B
:104DE000534620462946FBF794FB42463B46FBF7D9
:104DF0006EFD04460D4608E0032622462B460020A1
:104E00003B49FBF764FD04460D4622462B461046FF
:104E10001946FBF784FB8B46824602460B46FBF79E
:104E20007EFB07460246334888460B4606217844F7
:104E3000FFF7ECF852465B46FBF771FB82462E48C3
:104E40008B463A46434605217844FFF7DFF83A4659
:104E50004346FBF764FB02460B46002E504659467C
:104E60000CDAFBF7B5FA22462B46FBF758FB01B0EC
:104E700022462B46BDE8F04FFBF74EBBFBF7A8FAE6
:104E800022462B46FBF74BFB1C4A7A4402EBC60337
:104E9000D3E90023FBF73DFB22462B46FBF739FB0A
:104EA000174A7A4402EBC603D3E90023FBF734FB2D
:104EB000009A002AB8BF81F00041BDE8F88F0000D9
:104EC000000010440000F07F182D4454FB21F93FEE
:104ED000FB21F9BF0000DC3F0000203E0000F33F53
:104EE0000000F03F0000E63F008003400000F83F74
:104EF0000000F0BFEE360000AC3600004A3600007D
:104F0000123600002DE9F04D9446CCF1000423F058
:104F100000464CEA0404524F46EAD4749A46884646
:104F200021F00042BC4206D8454240EA050442EA6C
:104F3000D474BC4204D9BDE8F04D6246FFF7BEB858
:104F4000AAF14055A5F17F6555EA0C040BD0022467
:104F500004EAAA74434DDFF810E144EAD87452EA37
:104F6000000B04D00CE0BDE8F04DFFF7BBBE002CF9
:104F700014BF012CBDE8F08D022C30D0032C32D0B0
:104F800056EA0C0B0AD0BE4220D1BA4209D126F013
:104F9000804622F080423346114617E000291ADB92
:104FA00025E0DFF8C8B0FB44002C04BFDBE90001BA
:104FB000BDE8F08D012C02BFDBE9000181F000416A
:104FC000BDE8F08D022C0AD0032C0CD0BA4212D1CD
:104FD000B8F1000F0BDA23482549BDE8F08D2846CB
:104FE0002449BDE8F08D28467146BDE8F08D1D4886
:104FF0002149BDE8F08D921B12153C2AC4BF194807
:105000001D490EDCBAF1000FBEBF12F13C0F0020AB
:10501000014606DB6246FBF75AFC21F00041FFF730
:1050200061FE002C08BFBDE8F08D012C04BF81F0AB
:105030000041BDE8F08D114A114B022C07D0FBF75F
:1050400068FA2A46BDE8F04D0A4BFBF762BAFBF757
:1050500060FA2A46BDE8F04D064BFBF75DBA00004A
:105060000000F07F182D4454FB2109C0A635000034
:10507000FB21F9BFFB210940FB21F93F075C1433F9
:1050800026A6A13C08B560B120208DF8000028209C
:105090008DF8010030208DF8020038208DF80300D3
:1050A00004E0A32204216846FBF79FF86A46042126
:1050B00040F69E2001F0A8FD01F06EFA08BD000048
:1050C0003EB5044602208DF80000CA208DF801008C
:1050D000E3208DF8020009208DF803006A460421C0
:1050E000682001F091FDA3208DF80000610609D52C
:1050F000C0218DF80110C8218DF80210C2218DF851
:10510000031005E08DF801008DF802008DF8030012
:1051100014F4C07F09D0C4218DF80410CC218DF87F
:105120000510C6218DF8061005E08DF804008DF8F5
:1051300005008DF806008DF808008DF807008DF841
:1051400009006A460A2140F6A72001F05DFDA0078C
:105150004FF0D80503D020208DF8000001E08DF835
:1051600000506A46012140F6B62001F04DFDA00630
:1051700001D5012000E0002000F08EF814F4C07F7B
:105180001ED0E0050AD5B2208DF800008B208DF8E6
:105190000100B6208DF802009B2009E0B0208DF8B8
:1051A000000080208DF80100B4208DF802009020CE
:1051B0008DF803006A46042140F6A22001F024FD88
:1051C000E1074FF40B6022D0F8218DF800106A46F9
:1051D000012101F019FDFA21072000F039FB072019
:1051E00000F004FB012000F021FB642000F0C4FB70
:1051F0004FF4FA7000F0D0FBC821254800F0BEFA49
:10520000282000F0D3FA0A2000F0E0FA05E08DF83B
:1052100000506A46012101F0F7FCA00703D5D92010
:105220008DF8000001E08DF800506A46012140F23F
:105230003D7001F0E9FC600701D5012000E000208D
:1052400000F048F8E00601D5012000E00020FFF75B
:1052500019FF104D44F00800688101F09DF900200D
:10526000A873600601D50620A87314F4C07F02D08D
:10527000A87B801DA87314F0140F02D0A87B1030F7
:10528000A873A00702D0A87B001DA87300203EBD14
:1052900009E3CA02F40700200EB54FF4976310B17A
:1052A00006A107C901E008A207CA8DE807006A46FF
:1052B0000921184601F0A8FC0EBD0000B8AAB38D64
:1052C000B4980D355D000000B8AAAAAAB088C3C57D
:1052D000C700000008B560B1C0208DF80000C220F2
:1052E0008DF80100C4208DF80200C6208DF803005F
:1052F00004E08B2204216846FAF777FF6A4604210E
:1053000040F6982001F080FC01F046F908BD00004D
:10531000C8234FF48062024940F6F63001F01EB80F
:10532000307800082DE9FF4F89B01746DDE91652A5
:1053300000244C4E884681462C80A246B07B6946AC
:1053400001F0B8F84FF0FF3B18B158460DB0BDE87A
:10535000F08F708910F0140F3CD0009909BA21F039
:10536000FF039DF803100B433B6001991B1409BA1E
:1053700021F0FF029DF807105B430A437A6002990F
:105380009DF80B4009BA21F0FF012143B960039C4D
:10539000091424BA24F0FF0C9DF80F4012144CEAB3
:1053A000040CC7F80CC04FEA2C47494302FB0232F9
:1053B00007FB071111441024A1F17061B1F1007FC6
:1053C00004D901F0E9F8A5F800A0BEE7298841F466
:1053D000807129804206694611D50A19A41D1388D7
:1053E0005BBAA8F8003053885BBAA8F802309288FC
:1053F00052BAA8F804202A8842F008022A8010F441
:10540000C07F11D00A19A41D13885BBAA9F8003017
:1054100053885BBAA9F80230928852BAA9F80420DE
:105420002A8842F070022A80800716D00C44E07867
:1054300000F0C00500F03F016078C00706D0C80842
:1054400001F007013268491C02B1904760780007FB
:1054500003D5716809B1A80988470C9801F0FEFBD3
:10546000002073E7F40700202DE9FF41044603A85C
:1054700000F02AFEBDF80C00410CC3032F4802893E
:1054800002F00300550754F8200000D54042C2F353
:10549000C105960654F8255000D56D42C2F3811619
:1054A000D20554F8264000D56442A0FB0367C2171A
:1054B00002FB037200FB0120820042EA9670A5FB0A
:1054C0000367EA1702FB037205FB0122950045EA18
:1054D0009672A4FB0367E51705FB037304FB013118
:1054E0008B0043EA9671030E8DF80030030C8DF8A3
:1054F0000130030A8DF802308DF80300100E8DF88C
:105500000400100C8DF80500100A8DF80600080E36
:105510008DF80800080C8DF80900080A8DF80A00BB
:105520008DF807208DF80B106A460C214FF425707A
:1055300001F06AFB04B0BDE8F0810000F407002030
:1055400030B5044613A285B007CA8DE807004FF0B6
:10555000FF35C82C16D8C820B0FBF4F1491E080A44
:105560008DF80C008DF80D1003AA022140F21620D0
:1055700001F04AFB30B96A460C2140F6C12001F027
:1055800043FB10B1284605B030BD0548848100209A
:10559000F9E70000FEF2ABC4AAF1DFDFBBAFDFDF4B
:1055A000F4070020F8B53049098901F0030250F8EA
:1055B00022404A0700D56442C1F3C1028B0650F86D
:1055C000222000D55242C1F3811350F82330C80580
:1055D00000D55B42254984FB0140850045EA947073
:1055E00082FB0142A40F44EA820483FB0121950F50
:1055F00045EA8105010E8DF80010010C8DF80110AF
:10560000010A8DF802108DF803006A4604214FF458
:10561000747001F0F9FA4FF0FF3688B9200E8DF85A
:105620000000200C8DF80100200A8DF802008DF892
:1056300003406A4604214FF4757001F0E5FA08B1A1
:105640003046F8BD280E8DF80000280C8DF80100BA
:10565000280A8DF802008DF803506A4604214FF4A1
:10566000767001F0D1FAF8BDF407002009E3CA0210
:105670002DE9FF4104463CA004F0030300680290BA
:105680003AA0006803903AA006683AA0056802A80C
:10569000C15C8DF80010C4F3C101425C8DF801209B
:1056A000C4F38112805C8DF8020003A8C35C8DF8FE
:1056B0000430415C8DF80510805C8DF806006A4668
:1056C000032140F2264001F09FFA4FF0FF37E0BB84
:1056D00001AA032140F22A4001F096FAA8BBCDE9C5
:1056E000006560070BD59DF8000040F001008DF8C3
:1056F00000009DF8040040F001008DF80400A006B1
:105700000BD59DF8010040F001008DF801009DF8D7
:10571000050040F001008DF80500E0050BD59DF86F
:10572000020040F001008DF802009DF8060040F0F4
:1057300001008DF806006A4603214FF4886001F0ED
:1057400063FA10B901AA032100E004E040F23140FD
:1057500001F05AFA18B1384604B0BDE8F0810648A5
:1057600004810020F8E700004CCD6C000CC92C002F
:105770003656760026466600F40700204FF47A720B
:1057800090FBF2F008B54843010E8DF80010010CB3
:105790008DF80110010A8DF802108DF803006A4699
:1057A00004214FF4AE7001F02FFA08BD0521B0FBC3
:1057B000F1F008B5010A8DF800108DF801006A4675
:1057C00002214FF4AD7001F01FFA08BD0521B0FBB6
:1057D000F1F008B5010A8DF800108DF801006A4655
:1057E00002214FF4AC7001F00FFA08BD08B500219A
:1057F0008DF80010C10702D030218DF8001081070C
:1058000005D59DF8001041F00C018DF800104007FF
:1058100005D59DF8000040F003008DF800006A46B1
:1058200001214FF4A47001F0EFF908BD08B560B193
:10583000042800D90420401E8DF800006A4601218A
:1058400040F24F1001F0E0F908BD0120F3E700003D
:105850002DE9FC41054640074FF0FF367CD0B1F5FD
:10586000C86F79D80846FAF7D5FE3E49FAF766FDC3
:10587000074601A800F00AFC9DF80400022806D0A3
:1058800004280DD008282ED0102865D134E00E2130
:105890003846FAF791FDFAF7DBFE84B2324907E0A9
:1058A0000D213846FAF788FDFAF7D2FE2F4984B267
:1058B0003846FAF711FDFAF7CBFE210A8DF80010F1
:1058C00080B28DF80140010A8DF802108DF80300B6
:1058D000E8076C4620D0224602214FF4EA7001F01E
:1058E00093F9C8BB11E00C213846FAF765FDFAF7C9
:1058F000AFFE84B21E49DBE70B213846FAF75CFDA8
:10590000FAF7A6FE84B21B49D2E7A21C02214FF48B
:10591000927001F079F9F8B9A8070DD56A4602210D
:105920004FF4EC7001F070F9B0B9A21C02214FF4F1
:10593000947001F069F978B9680710D56A460221B8
:105940004FF4EE7001F060F930B9A21C02214FF45F
:10595000967001F059F910B13046BDE8FC81002085
:10596000FBE7000000004843000040460000C0453F
:10597000000040450000C0440521B0FBF1F008B52F
:10598000010A8DF800108DF801006A4602214FF4DB
:10599000EF7001F039F908BD0521B0FBF1F008B551
:1059A000010A8DF800108DF801006A4602214FF4BB
:1059B000ED7001F029F908BD38B504468DF80000F6
:1059C00069460320ABBE204638BD00002DE9FE43EA
:1059D0000646264801AB042240680D21007800F0FD
:1059E0003FFA10B10720BDE8FE839DF804101C208B
:1059F00000EAD1029DF80710DFF87490C1F301139B
:105A00001A438DF800209DF80520C1F3810300EAB8
:105A1000D2021A438DF801209DF8062001F00301FF
:105A200000EAD20008430024124F8DF80200A0467D
:105A30006D46285D10B146F824900AE046F82480AF
:105A40000DE000BF56F824003946FAF745FC46F849
:105A50002400285D401E10F0FF002855F2D1641C80
:105A6000E4B2032CE5D30020BDE70000380000209D
:105A70007B14AE3E1D5A843F2DE9FE4F05460120A2
:105A8000C14E8DF800004FF000088DF8018030689D
:105A90000C461746817C70686B460222007800F045
:105AA00017FA4FF0FF3A00287AD1C820FDF748FFD7
:105AB0008DF8008030686B460122C17B70680078E9
:105AC00000F006FA0028EFD130686B4601224179D8
:105AD0007068007800F0FCF90028E5D130686B466A
